{
  "contractName": "dapp",
  "abi": [
    {
      "inputs": [],
      "payable": false,
      "stateMutability": "nonpayable",
      "type": "constructor"
    },
    {
      "constant": true,
      "inputs": [],
      "name": "getFisherFish",
      "outputs": [
        {
          "internalType": "uint256",
          "name": "fish_color",
          "type": "uint256"
        },
        {
          "internalType": "uint256",
          "name": "fish_size",
          "type": "uint256"
        },
        {
          "internalType": "uint256",
          "name": "fish_state",
          "type": "uint256"
        }
      ],
      "payable": false,
      "stateMutability": "view",
      "type": "function"
    },
    {
      "constant": false,
      "inputs": [
        {
          "internalType": "uint256",
          "name": "random_num",
          "type": "uint256"
        }
      ],
      "name": "goFishing",
      "outputs": [
        {
          "internalType": "uint256",
          "name": "fish_color",
          "type": "uint256"
        },
        {
          "internalType": "uint256",
          "name": "fish_size",
          "type": "uint256"
        }
      ],
      "payable": true,
      "stateMutability": "payable",
      "type": "function"
    },
    {
      "constant": false,
      "inputs": [],
      "name": "releaseFish",
      "outputs": [],
      "payable": false,
      "stateMutability": "nonpayable",
      "type": "function"
    },
    {
      "constant": true,
      "inputs": [],
      "name": "getFisherFishState",
      "outputs": [
        {
          "internalType": "uint256",
          "name": "state",
          "type": "uint256"
        }
      ],
      "payable": false,
      "stateMutability": "view",
      "type": "function"
    },
    {
      "constant": false,
      "inputs": [
        {
          "internalType": "uint256",
          "name": "price",
          "type": "uint256"
        }
      ],
      "name": "sellFish",
      "outputs": [],
      "payable": false,
      "stateMutability": "nonpayable",
      "type": "function"
    },
    {
      "constant": true,
      "inputs": [],
      "name": "getCommodity",
      "outputs": [
        {
          "internalType": "uint256",
          "name": "count",
          "type": "uint256"
        },
        {
          "internalType": "uint256[]",
          "name": "fish_color",
          "type": "uint256[]"
        },
        {
          "internalType": "uint256[]",
          "name": "fish_size",
          "type": "uint256[]"
        },
        {
          "internalType": "uint256[]",
          "name": "fish_price",
          "type": "uint256[]"
        },
        {
          "internalType": "uint256[]",
          "name": "cmID",
          "type": "uint256[]"
        }
      ],
      "payable": false,
      "stateMutability": "view",
      "type": "function"
    },
    {
      "constant": false,
      "inputs": [
        {
          "internalType": "uint256",
          "name": "fish_id",
          "type": "uint256"
        }
      ],
      "name": "buyFish",
      "outputs": [],
      "payable": true,
      "stateMutability": "payable",
      "type": "function"
    }
  ],
  "bytecode": "0x608060405260008055600060015534801561001957600080fd5b5033600260006101000a81548173ffffffffffffffffffffffffffffffffffffffff021916908373ffffffffffffffffffffffffffffffffffffffff1602179055506111358061006a6000396000f3fe6080604052600436106100705760003560e01c80634ebee53f1161004e5780634ebee53f14610219578063d6ba188214610254578063e07b0e6c1461026b578063f4e93c5d146102a457610070565b8063295b73c7146100755780632c28fdf8146101c0578063407b4ea1146101ee575b600080fd5b34801561008157600080fd5b5061008a6102ed565b6040518086815260200180602001806020018060200180602001858103855289818151815260200191508051906020019060200280838360005b838110156100df5780820151818401526020810190506100c4565b50505050905001858103845288818151815260200191508051906020019060200280838360005b83811015610121578082015181840152602081019050610106565b50505050905001858103835287818151815260200191508051906020019060200280838360005b83811015610163578082015181840152602081019050610148565b50505050905001858103825286818151815260200191508051906020019060200280838360005b838110156101a557808201518184015260208101905061018a565b50505050905001995050505050505050505060405180910390f35b6101ec600480360360208110156101d657600080fd5b81019080803590602001909291905050506104ab565b005b3480156101fa57600080fd5b506102036109ab565b6040518082815260200191505060405180910390f35b34801561022557600080fd5b506102526004803603602081101561023c57600080fd5b81019080803590602001909291905050506109f8565b005b34801561026057600080fd5b50610269610bbb565b005b34801561027757600080fd5b50610280610ce6565b60405180848152602001838152602001828152602001935050505060405180910390f35b6102d0600480360360208110156102ba57600080fd5b8101908080359060200190929190505050610dc8565b604051808381526020018281526020019250505060405180910390f35b6000606080606080600080546040519080825280602002602001820160405280156103275781602001602082028038833980820191505090505b50945060005460405190808252806020026020018201604052801561035b5781602001602082028038833980820191505090505b50935060005460405190808252806020026020018201604052801561038f5781602001602082028038833980820191505090505b5092506000546040519080825280602002602001820160405280156103c35781602001602082028038833980820191505090505b509150600090505b60005481101561049e5760046000828152602001908152602001600020600101548582815181106103f857fe5b602002602001018181525050600460008281526020019081526020016000206002015484828151811061042757fe5b602002602001018181525050600460008281526020019081526020016000206004015483828151811061045657fe5b602002602001018181525050600460008281526020019081526020016000206000015482828151811061048557fe5b60200260200101818152505080806001019150506103cb565b6000549550509091929394565b60008060009050600091505b60005482101561051e5782600460008481526020019081526020016000206000015414156105115734670de0b6b3a7640000600460008581526020019081526020016000206004015402141561050c57600190505b61051e565b81806001019250506104b7565b600181141561095e5760006004600084815260200190815260200160002060030160009054906101000a900473ffffffffffffffffffffffffffffffffffffffff1690506000600360008373ffffffffffffffffffffffffffffffffffffffff1673ffffffffffffffffffffffffffffffffffffffff168152602001908152602001600020600001819055506000600360008373ffffffffffffffffffffffffffffffffffffffff1673ffffffffffffffffffffffffffffffffffffffff168152602001908152602001600020600101600001819055506000600360008373ffffffffffffffffffffffffffffffffffffffff1673ffffffffffffffffffffffffffffffffffffffff168152602001908152602001600020600101600101819055506000600360008373ffffffffffffffffffffffffffffffffffffffff1673ffffffffffffffffffffffffffffffffffffffff16815260200190815260200160002060010160020181905550600360003373ffffffffffffffffffffffffffffffffffffffff1673ffffffffffffffffffffffffffffffffffffffff168152602001908152602001600020600001600081548092919060010191905055506004600084815260200190815260200160002060010154600360003373ffffffffffffffffffffffffffffffffffffffff1673ffffffffffffffffffffffffffffffffffffffff168152602001908152602001600020600101600001819055506004600084815260200190815260200160002060020154600360003373ffffffffffffffffffffffffffffffffffffffff1673ffffffffffffffffffffffffffffffffffffffff168152602001908152602001600020600101600101819055506001600360003373ffffffffffffffffffffffffffffffffffffffff1673ffffffffffffffffffffffffffffffffffffffff168152602001908152602001600020600101600201819055506000808154809291906001900391905055506004600080548152602001908152602001600020600460008581526020019081526020016000206000820154816000015560018201548160010155600282015481600201556003820160009054906101000a900473ffffffffffffffffffffffffffffffffffffffff168160030160006101000a81548173ffffffffffffffffffffffffffffffffffffffff021916908373ffffffffffffffffffffffffffffffffffffffff160217905550600482015481600401559050506004600080548152602001908152602001600020600080820160009055600182016000905560028201600090556003820160006101000a81549073ffffffffffffffffffffffffffffffffffffffff0219169055600482016000905550508073ffffffffffffffffffffffffffffffffffffffff166108fc349081150290604051600060405180830381858888f19350505050158015610957573d6000803e3d6000fd5b50506109a6565b3373ffffffffffffffffffffffffffffffffffffffff166108fc349081150290604051600060405180830381858888f193505050501580156109a4573d6000803e3d6000fd5b505b505050565b6000600360003373ffffffffffffffffffffffffffffffffffffffff1673ffffffffffffffffffffffffffffffffffffffff16815260200190815260200160002060010160020154905090565b6002600360003373ffffffffffffffffffffffffffffffffffffffff1673ffffffffffffffffffffffffffffffffffffffff16815260200190815260200160002060010160020181905550600154600460008054815260200190815260200160002060000181905550600360003373ffffffffffffffffffffffffffffffffffffffff1673ffffffffffffffffffffffffffffffffffffffff16815260200190815260200160002060010160000154600460008054815260200190815260200160002060010181905550600360003373ffffffffffffffffffffffffffffffffffffffff1673ffffffffffffffffffffffffffffffffffffffff1681526020019081526020016000206001016001015460046000805481526020019081526020016000206002018190555033600460008054815260200190815260200160002060030160006101000a81548173ffffffffffffffffffffffffffffffffffffffff021916908373ffffffffffffffffffffffffffffffffffffffff16021790555080600460008054815260200190815260200160002060040181905550600080815480929190600101919050555060016000815480929190600101919050555050565b6000600360003373ffffffffffffffffffffffffffffffffffffffff1673ffffffffffffffffffffffffffffffffffffffff168152602001908152602001600020600001819055506000600360003373ffffffffffffffffffffffffffffffffffffffff1673ffffffffffffffffffffffffffffffffffffffff168152602001908152602001600020600101600001819055506000600360003373ffffffffffffffffffffffffffffffffffffffff1673ffffffffffffffffffffffffffffffffffffffff168152602001908152602001600020600101600101819055506000600360003373ffffffffffffffffffffffffffffffffffffffff1673ffffffffffffffffffffffffffffffffffffffff16815260200190815260200160002060010160020181905550565b6000806000600360003373ffffffffffffffffffffffffffffffffffffffff1673ffffffffffffffffffffffffffffffffffffffff168152602001908152602001600020600101600001549250600360003373ffffffffffffffffffffffffffffffffffffffff1673ffffffffffffffffffffffffffffffffffffffff168152602001908152602001600020600101600101549150600360003373ffffffffffffffffffffffffffffffffffffffff1673ffffffffffffffffffffffffffffffffffffffff168152602001908152602001600020600101600201549050909192565b600080678ac7230489e800003414610e26573373ffffffffffffffffffffffffffffffffffffffff166108fc349081150290604051600060405180830381858888f19350505050158015610e20573d6000803e3d6000fd5b506110da565b6000600360003373ffffffffffffffffffffffffffffffffffffffff1673ffffffffffffffffffffffffffffffffffffffff1681526020019081526020016000209050610e716110df565b6001826000015410610e8a57600093506000925061106e565b600060016003874260405160200180838152602001828152602001925050506040516020818303038152906040528051906020012060001c81610ec957fe5b0601905080826000018181525050600060016004884260405160200180838152602001828152602001925050506040516020818303038152906040528051906020012060001c81610f1657fe5b06019050808360200181815250508260000151600360003373ffffffffffffffffffffffffffffffffffffffff1673ffffffffffffffffffffffffffffffffffffffff168152602001908152602001600020600101600001819055508260200151600360003373ffffffffffffffffffffffffffffffffffffffff1673ffffffffffffffffffffffffffffffffffffffff168152602001908152602001600020600101600101819055506001600360003373ffffffffffffffffffffffffffffffffffffffff1673ffffffffffffffffffffffffffffffffffffffff16815260200190815260200160002060010160020181905550600360003373ffffffffffffffffffffffffffffffffffffffff1673ffffffffffffffffffffffffffffffffffffffff16815260200190815260200160002060000160008154809291906001019190505550826000015195508260200151945050505b600260009054906101000a900473ffffffffffffffffffffffffffffffffffffffff1673ffffffffffffffffffffffffffffffffffffffff166108fc349081150290604051600060405180830381858888f193505050501580156110d6573d6000803e3d6000fd5b5050505b915091565b6040518060600160405280600081526020016000815260200160008152509056fea265627a7a7231582026c7e995249fef3ad21702a3269b7cd88c3f1dc52bd7acb9d0b6c3deee3556aa64736f6c634300050c0032",
  "source": "pragma solidity >=0.4.22 <0.6.0;\r\n\r\ncontract dapp {\r\n\r\n    // uint maxFishNumber = 10;\r\n    uint commodityNumber = 0;\r\n    uint commodityIDGive = 0;\r\n\r\n    address payable owner;\r\n    constructor() public{\r\n        owner = msg.sender;\r\n    }\r\n\r\n    struct fish{\r\n        uint fish_color;\r\n        uint fish_size;\r\n        uint fish_state;\r\n    }\r\n    struct fisher{\r\n        uint fish_count;\r\n        fish own_fish;\r\n    }\r\n\r\n    struct marketCommodity{\r\n        uint commodityID;\r\n        uint fish_color;\r\n        uint fish_size;\r\n        address payable fish_owner;\r\n        uint price;\r\n    }\r\n\r\n    mapping(address => fisher) fishers;\r\n    mapping(uint => marketCommodity) commodities;\r\n\r\n    function getFisherFish() public view returns (uint fish_color, uint fish_size, uint fish_state){\r\n        fish_color = fishers[msg.sender].own_fish.fish_color;\r\n        fish_size = fishers[msg.sender].own_fish.fish_size;\r\n        fish_state = fishers[msg.sender].own_fish.fish_state;\r\n    }\r\n\r\n    function goFishing(uint random_num) public payable returns (uint fish_color, uint fish_size) {\r\n        if(msg.value != 10 ether){\r\n            msg.sender.transfer(msg.value);\r\n        }else{\r\n            fisher storage fisherman = fishers[msg.sender];\r\n            fish memory new_fish;\r\n            if(fisherman.fish_count>=1){\r\n                fish_color = 0;\r\n                fish_size = 0;\r\n            }\r\n            else{\r\n                uint256 random_color = uint256(keccak256(abi.encodePacked(random_num, now)))%3+1;\r\n                new_fish.fish_color = random_color;\r\n                uint256 random_size = uint256(keccak256(abi.encodePacked(random_num, now)))%4+1;\r\n                new_fish.fish_size = random_size;\r\n                fishers[msg.sender].own_fish.fish_color = new_fish.fish_color;\r\n                fishers[msg.sender].own_fish.fish_size = new_fish.fish_size;\r\n                fishers[msg.sender].own_fish.fish_state = 1;\r\n                fishers[msg.sender].fish_count++;\r\n                fish_color = new_fish.fish_color;\r\n                fish_size = new_fish.fish_size;\r\n            }\r\n            owner.transfer(msg.value);\r\n        }\r\n    }\r\n\r\n    function releaseFish() public {\r\n        fishers[msg.sender].fish_count = 0;\r\n        fishers[msg.sender].own_fish.fish_color = 0;\r\n        fishers[msg.sender].own_fish.fish_size = 0;\r\n        fishers[msg.sender].own_fish.fish_state = 0;\r\n    }\r\n\r\n    function getFisherFishState() public view returns (uint state) {\r\n        state = fishers[msg.sender].own_fish.fish_state;\r\n    }\r\n\r\n    function sellFish(uint price) public {\r\n        fishers[msg.sender].own_fish.fish_state = 2;\r\n        commodities[commodityNumber].commodityID = commodityIDGive;\r\n        commodities[commodityNumber].fish_color = fishers[msg.sender].own_fish.fish_color;\r\n        commodities[commodityNumber].fish_size = fishers[msg.sender].own_fish.fish_size;\r\n        commodities[commodityNumber].fish_owner = msg.sender;\r\n        commodities[commodityNumber].price = price;\r\n        commodityNumber++;\r\n        commodityIDGive++;\r\n    }\r\n\r\n    function getCommodity() public view returns (uint count, uint[] memory fish_color, uint[] memory fish_size, uint[] memory fish_price, uint[] memory cmID) {\r\n        uint i;\r\n        fish_color = new uint[] (commodityNumber);\r\n        fish_size = new uint[] (commodityNumber);\r\n        fish_price = new uint[] (commodityNumber);\r\n        cmID = new uint[] (commodityNumber);\r\n        for(i=0;i<commodityNumber;i++) {\r\n            fish_color[i] = commodities[i].fish_color;\r\n            fish_size[i] = commodities[i].fish_size;\r\n            fish_price[i] = commodities[i].price;\r\n            cmID[i] = commodities[i].commodityID;\r\n        }\r\n        count = commodityNumber;\r\n    }\r\n\r\n    function buyFish(uint fish_id) public payable{\r\n        uint i;\r\n        uint flag = 0;\r\n        for(i=0;i<commodityNumber;i++){\r\n            if(commodities[i].commodityID==fish_id){\r\n                if(commodities[i].price*1000000000000000000 == msg.value){\r\n                    flag = 1;\r\n                }\r\n                break;\r\n            }\r\n        }\r\n        if(flag==1){\r\n            address payable item = commodities[i].fish_owner;\r\n            fishers[item].fish_count = 0;\r\n            fishers[item].own_fish.fish_color = 0;\r\n            fishers[item].own_fish.fish_size = 0;\r\n            fishers[item].own_fish.fish_state = 0;\r\n            fishers[msg.sender].fish_count++;\r\n            fishers[msg.sender].own_fish.fish_color = commodities[i].fish_color;\r\n            fishers[msg.sender].own_fish.fish_size = commodities[i].fish_size;\r\n            fishers[msg.sender].own_fish.fish_state = 1;\r\n            commodityNumber--;\r\n            commodities[i] = commodities[commodityNumber];\r\n            delete commodities[commodityNumber];\r\n            item.transfer(msg.value);\r\n        }\r\n        else{\r\n            msg.sender.transfer(msg.value);\r\n        }\r\n    }\r\n}",
  "sourcePath": "C:/Users/74783/Desktop/my_dapp/dapp/solidity/contracts/dapp.sol",
  "compiler": {
    "name": "solc",
    "version": "0.5.12+commit.7709ece9.Emscripten.clang"
  },
  "schemaVersion": "3.0.20",
  "updatedAt": "2020-01-03T15:37:23.522Z",
  "networkType": "ethereum",
  "devdoc": {
    "methods": {}
  },
  "userdoc": {
    "methods": {}
  }
}